:020000040800F2
:1000000078210020010100084117000809140008A8
:100010003D170008190E0008592D000800000000C7
:10002000000000000000000000000000892400081B
:10003000E110000800000000E11E00085D28000833
:100040001701000817010008170100081701000830
:100050001701000817010008170100081701000820
:100060001701000817010008170100081701000810
:100070001701000817010008170100081701000800
:1000800017010008170100081701000817010008F0
:1000900017010008170100081701000817010008E0
:1000A00017010008170100081701000817010008D0
:1000B00095280008170100081129000817010008F9
:1000C00017010008170100081701000817010008B0
:1000D0001701000817010008E12A0008892B000811
:1000E000170100081701000817010008DFF80CD0FD
:1000F00000F070FC00480047313A000878210020E9
:1001000005480047FEE7FEE7FEE7FEE7FEE7FEE7FD
:10011000FEE7FEE7FEE7FEE7ED0000080649074AB6
:100120000868504343F239021044086040087047A1
:100130000149086070470000CC0000206D4EC641A8
:10014000F0B480EA0102D40F4200B2EB410F02D2B8
:100150000246084611464A0042D0C30DDDB2C1F343
:10016000C752AD1A202D35DAC1F3160141F4000251
:1001700004B15242C5F1200602FA06F12A411044A8
:10018000B3EBD05F23D0C4B1012DA0EBC35009DC89
:10019000F0BC4FF0004202EAC352DBB200F50000AF
:1001A00000F08EBA400000F1807000EBC350A0F167
:1001B000807040EAD170490009E0490841EAC07105
:1001C000A0EBC35000F50000400800EBC350F0BCAA
:1001D00000F06DBA6142012202EB4101001BF6E71B
:1001E000F0BC704781F00041AAE780F00040A7E72B
:1001F00080EA010210B502F00043400022D04A001C
:100200001FD0010E01EB1261C0F35600C2F356027B
:1002100040F4000042F40002A0FB022000047F39F9
:10022000140400D0401C50EA124001D44000491E82
:10023000C2B20C0604EBD010401C4008802A02D049
:1002400003E0002010BD20F00100002900DA0020AA
:10025000184310BD30B480EA010202F0004530F0CE
:10026000004221F0004013D090B1C30DD40DC2F371
:100270001601C0F31600E41A41F4000140F4000234
:100280007D34914201D3641C00E04900002C02DA65
:1002900030BC002070474FF400000023914201D38E
:1002A000891A034340084FEA4101F7D151B1914205
:1002B00002D14FF0004105E002D24FF0010101E010
:1002C0006FF0010103EBC450284430BC00F0EFB9DB
:1002D0002DE9FE4F81EA030404F0004421F00041BF
:1002E00000944FF0000B23F0004350EA01045ED06D
:1002F00052EA03045BD0C3F30A54C1F30A552C44F9
:10030000A4F2F3340194A0FB0254C1F3130141F4AD
:100310008011C3F3130343F4801301FB024400FB79
:10032000034E840A970A44EA815447EA8357A4FBA0
:10033000076802958D0A05FB07854FEA932C04FB9D
:100340000C542705029D4FEA065847EA1637B5EBCD
:1003500008056EEB070C870E920E47EA811742EAFA
:100360008312A7FB0201B6EB0B0164EB00042B0D1B
:1003700043EA0C335E1844EB1C50DA465146E7FB67
:100380000201C5F313044FEA0B3343EA14534FEA57
:100390000432019C43EA0603A4F10C040294009C7D
:1003A000CDE900B400F0C9F903B0BDE8F08F00203A
:1003B0000146F9E72DE9F04D81EA030404F0004B12
:1003C00021F0004514464FF0000A23F0004150EAA6
:1003D000050220D054EA01021DD0C5F30A57024697
:1003E000C5F31303C1F31300C1F30A5640F480159B
:1003F00043F48013A7EB0608101BD64608F2FD381D
:1004000073EB050002D308F1010801E092185B418B
:10041000B8F1000F03DA00200146BDE8F08D00209E
:100420004FF48011064684460EE0171B73EB050758
:1004300005D3121B63EB050306434CEA010C490884
:100440004FEA300092185B4150EA0107EDD152EAC1
:10045000030012D082EA040083EA0501084305D0B4
:10046000101BAB4106D20122002306E000224FF010
:10047000004302E06FF0010253101AEB06004CEB50
:10048000085110EB0A0041EB0B01BDE8F04D00F004
:1004900045B9C10F80EAE0700844CA0796230021DD
:1004A00000F00EB996230022114600F009B900F0C1
:1004B000004220F00040C10DC0F3160040F40000DF
:1004C0007F2901DA00207047962903DCC1F19601EB
:1004D000C84001E096398840002AF4D04042704775
:1004E00020F00040C10DC0F3160040F400007F2949
:1004F00001DA00207047962903DCC1F19601C8405B
:10050000704796398840704770B5C1F30A5201F0C0
:1005100000450024C1F3130140F2FF3341F4801180
:100520009A4201DA002070BD40F233439A42A2F2AF
:10053000334203DC524200F0AAF800E090402C4322
:10054000F1D0404270BDC1F30A5210B5C1F313019E
:1005500040F2FF3341F480119A4201DA002010BDCD
:1005600040F233439A42A2F2334203DC524200F09B
:100570008EF810BD904010BD00F0004230F00040F9
:100580000AD0C10D01F56071C0F3160042EA0151B5
:10059000C20840071143704700200146704701F030
:1005A000004330B421F0004150EA010206D00A0DA8
:1005B000A2F56072C1F31301002A02DC30BC0020F6
:1005C0007047440F44EAC104C100E01830BC00EB9E
:1005D000C25000F06CB80000002801DBC0F1004000
:1005E000002901DBC1F1004181427047002801DB95
:1005F000C0F10040002901DBC1F100418842704791
:1006000030B50B46014600202022012409E021FAE2
:1006100002F59D4205D303FA02F5491B04FA02F5DF
:100620002844151EA2F10102F1DC30BD2DE9F05F76
:100630000546002092469B46884606468146402451
:100640001BE0284641464746224600F020F8534624
:100650005A46C01A914110D311461846224600F05E
:10066000CBF92D1A67EB01084F46224601200021E5
:1006700000F0C2F917EB00094E41201EA4F101045D
:10068000DFDC484631462A464346BDE8F09F202A33
:1006900004DB203A21FA02F00021704721FA02F32C
:1006A000D040C2F12002914008431946704700290A
:1006B000A8BF7047401C490008BF20F001007047E8
:1006C00010B4B0FA80FC00FA0CF050EA010404BF48
:1006D00010BC704749B1CCF1200421FA04F411FA9E
:1006E0000CF118BF012121430843A3EB0C01CB1DE2
:1006F0004FEA00614FEA102042BF002010BC704753
:1007000000EBC35010440029A4BF10BC7047401C2C
:10071000490008BF20F0010010BC704710B5141E3E
:1007200073F1000408DA401C41F1000192185B41AA
:100730001A4301D120F0010010BD2DE9F04D924681
:100740009B4611B1B1FA81F202E0B0FA80F2203298
:10075000904600F051F904460F4640EA0A0041EA8B
:100760000B0153465A46084313D0114653EA010081
:1007700019D0C8F140025046FFF789FF05460E46E2
:1007800050465946424600F037F9084305D001204B
:1007900004E020463946BDE8F08D0020054346EAD6
:1007A000E0762C4337430A986305E40AA0EB08007F
:1007B0000022FD0A44EA47540A3002D500200146CF
:1007C000E9E7010510196941DDE9084500196941AA
:1007D000BDE8F04DA2E72DE9FE4F804681EA030017
:1007E000C00F0C46009021F0004123F00045B8EB0B
:1007F0000200A94105D24046214690461C460B46C0
:10080000024623F00040104347D0270DC7F30A00EB
:10081000C3F30A510290401A019040286BDAC3F3E7
:10082000130040F4801B0098924620B10023D2EBC5
:10083000030A63EB0B0B01985946C0F14002504686
:1008400000F0DAF806460D4650465946019A00F087
:10085000E2F810EB08006141002487EA115284EAB3
:10086000E7731A4340D0009A62B3019A012A4FEA13
:10087000075215DC001B61EB02014FF0004202EA57
:100880000752CDE90042001C41F5801132462B464B
:10089000FFF753FF03B0BDE8F08F40462146F9E76C
:1008A000001B61EB0201001C41F5801300185B4145
:1008B0002018A2F5001747EB030140EAD570B619DE
:1008C0006D4111E06D084FEA360645EAC0754FEA02
:1008D0000752001B61EB0201001C41F58011490821
:1008E0004FEA30000019514132462B4603B0BDE8B3
:1008F000F04FFFF713BF0098012240000023D0EB18
:10090000020263EBE073009821464FEAE074B8EB13
:10091000000061EB0401E9E783F000435BE781F04D
:10092000004158E770B521F0004303430CD0C1F3F8
:100930000A550024D5EB040564EB0403D617AD1A61
:10094000B34102DB0020014670BD201841EB02518B
:1009500070BD0EB5C10F80EAE0700844CA070021DF
:1009600040F233438DE80E000A460B46FFF7E5FEE2
:1009700003B000BDC1F30A52C1F3130140F2FF33CB
:1009800041F480119A4202DA00200146704740F299
:1009900033439A42A2F2334202DC5242FFF777BE5F
:1009A00000F02AB830B5041E71F1000404DB4FF0EA
:1009B0000044404264EB0101141E73F1000405DBA6
:1009C0001C464FF00043524263EB0403994208BFB8
:1009D000904230BD064C074D06E0E06840F0010350
:1009E00094E8070098471034AC42F6D3FFF782FB37
:1009F000A4740008C4740008202A04DB203A00FA1A
:100A000002F1002070479140C2F1200320FA03F365
:100A1000194390407047202A06DBCB17203A41FA51
:100A200002F043EAE07306E041FA02F3D040C2F17B
:100A3000200291400843194670472DE9F04D0023EC
:100A40001A461B1A8A4103DB00200146BDE8F08DDF
:100A5000C1F30A52C1F3130141F480154FF0000BAA
:100A6000D10702D100186D41521E0027044640F202
:100A7000FF11384601EB620A3E46804602460020DE
:100A80004FF48011FFF703FEC2197141BB1846EB0A
:100A90000100B4EB030C75EB000C04D3E41A65EB16
:100AA000000517460E46241908F101006D418046E5
:100AB0003428E3DDF91946EB0600091BA84103D2EF
:100AC0004FF0FF32134601E0002213461BEB0700F4
:100AD00046EB0A51BDE8F04DFFF720BE00B591B0DE
:100AE0000121480201F02AFA0121042001F026FA2E
:100AF0000121084601F002FA0121042001F01EFA4A
:100B00004FF4004001F0EEF900208DF84300012081
:100B1000ADF8400003208DF8420010A9334800F0E2
:100B2000BBFB48208DF843000220ADF840000320B5
:100B30008DF8420010A92D4800F0AEFB05230122DC
:100B400000212B4800F0ACF800200B900E904FF4E1
:100B500060200D9001208DF831008DF830008DF867
:100B60003C000BA9224800F073F821484C3000905B
:100B700080150690002004901E4801904FF480607C
:100B800007908020059000200290012003902020F3
:100B9000089000200A904FF480500990694616484A
:100BA00000F05AF90121144800F04AF901211048D7
:100BB00000F02FF801210E4800F020F80C4800F05A
:100BC000CBF800BF0A4800F039F80128FAD00848ED
:100BD00000F0D2F800BF064800F026F80128FAD04D
:100BE0000121034800F0BDF811B000BD000801402C
:100BF00000240140C00000200800024021B18268AA
:100C000042F00102826003E0826822F00102826009
:100C1000704721B1826842F48072826003E082688A
:100C200022F4807282607047014600208A6802F0D8
:100C300004020AB1012000E00020704701460020B4
:100C40008A6802F008020AB1012000E00020704723
:100C500030B502460020002350680F4C20400D792B
:100C60000C6844EA05242043506090680B4C2040F7
:100C7000D1E902542C434D7944EA45042043906065
:100C8000D06A20F470000C7C641EE4B2234340EA76
:100C90000350D06230BD0000FFFEF0FFFDF7F1FF12
:100CA000F0B504460D4600200021092D11DDE06855
:100CB000A5F10A0606EB4607072606FA07F1884360
:100CC000A5F10A0606EB460603FA06F10843E060C2
:100CD0000CE0206905EB4507072606FA07F1884373
:100CE00005EB450603FA06F108432061072A0FDAEF
:100CF000606B561E06EB86071F2606FA07F188432F
:100D0000561E06EB860605FA06F10843606322E0EC
:100D10000D2A0FDA206BD61F06EB86071F2606FA70
:100D200007F18843D61F06EB860605FA06F108434D
:100D3000206310E0E06AA2F10D0606EB86071F268D
:100D400006FA07F18843A2F10D0606EB860605FABE
:100D500006F10843E062F0BD816841F0080181605E
:100D6000704721B1826842F4A002826003E0826889
:100D700022F4A00282607047816841F00401816022
:100D80007047000038B5124A1168124AD068FFF760
:100D90002DFC05D30F4800680D49897D884203DD8D
:100DA00001200D49487002E000200B4948700849B5
:100DB0000868FFF795FB84B20548C07D00900448A1
:100DC000C388827D2146054800F02CFA38BD00001A
:100DD000F8000020D80000201001002000F00108D9
:100DE00008B50121102001F0A9F84FF40050ADF82A
:100DF000000003208DF8020010208DF803006946E2
:100E0000044800F049FA4FF40051024800F0D8FAC3
:100E100008BD00000010014000BFFEE710B5002132
:100E2000014801F08CFD10BD0008004010B50348DA
:100E3000007808B100F078FC10BD0000100100201F
:100E400021B1026842F00102026004E002684FF63C
:100E5000FE731A400260704710B50022026847F620
:100E6000F0739A430C6A8B6823430C6923434C69E3
:100E700023438C692343CC6923434C6A23438C6A04
:100E800023431A430260CB6843600B6883604B685E
:100E9000C36010BD10B50024002000F06FF804E01E
:100EA000601CC4B2012002F0CBFC4FF480710F48EB
:100EB00000F07DFA08B1C82CF2DBC82C01DB012060
:100EC00010BD002404E0601CC4B2012002F0B8FC94
:100ED0004FF48071054800F06AFA08B9F02CF2DB93
:100EE000F02C01DB0120EBE70020E9E700080140DE
:100EF0002DE9F84F00F0B4F800F09AF8FFF7CAFFB8
:100F0000CC2000F0B9F8BE2000F0B6F800F07EF872
:100F1000834600F07BF80446072C08DDE043C4B2AA
:100F20006FEA0B0000F0FF0B4FF0000A01E04FF0FA
:100F3000010AA1464FEA09200FFA80F909EB0B00DC
:100F40000FFA80F94846FFF7A4FA0090FFF714FB68
:100F500007460022084BFFF7BBF90546FFF7D4FA16
:100F60000FFA80F9BAF1000F02D04846BDE8F88FB9
:100F7000C9F1000000B2F9E70000E43F38B50446CB
:100F80000121042000F0DAFF54B14FF48070ADF875
:100F9000000003208DF8020010208DF8030006E009
:100FA0004FF48070ADF8000004208DF8030069460E
:100FB000014800F071F938BD0008014010B501206A
:100FC000FFF7DCFF4FF480710F4800F0F9F90220C1
:100FD00002F036FC4FF480710B4800F0F3F900206A
:100FE000FFF7CCFF0C2002F02BFC4FF48071064879
:100FF00000F0DDF908B1012400E00024322002F005
:101000001FFC204610BD00000008014070B50026FE
:10101000012508E0FFF7D2FF0446E00140EA660040
:10102000C6B2681CC5B2082DF4DD304670BD0000A4
:1010300010B50120FFF7A2FF4FF48071074800F0C0
:10104000BFF940F2EE2002F0FBFB4FF48071034841
:1010500000F0B8F90F2002F0F3FB10BD00080140CA
:1010600010B5FFF7E5FFFFF715FFCC2000F004F8FF
:10107000442000F001F810BD70B504460120FFF7D0
:101080007DFF012526E004F00106641086B14FF4CF
:101090008071124800F094F9022002F0D1FB4FF465
:1010A00080710E4800F08EF93C2002F0C9FB0FE081
:1010B0004FF48071094800F083F93C2002F0C0FB36
:1010C0004FF48071054800F07DF9022002F0B8FB72
:1010D000681CC5B2082DD6DD70BD000000080140B7
:1010E000704700000149C8607047000000200240BE
:1010F00030B5044604254FF4302000F0BAF8054618
:10110000042D17D10C48006940F002000A4908611B
:1011100008464461006940F0400008614FF4302007
:1011200000F0A7F805460448006941F6FD71084043
:1011300001490861284630BD0020024004200B49C7
:10114000C96801F0010109B101200EE00749C96831
:1011500001F0040109B1022007E00449C96801F067
:10116000100109B1032000E0042070470020024074
:101170000348006940F080000149086170470000A1
:101180000020024070B504460D460426F00200F02F
:1011900070F80646042E11D10948006940F001009C
:1011A000074908612580F00200F063F8064604480C
:1011B000006941F6FE71084001490861304670BD82
:1011C00000200240014608887047000010B50D4815
:1011D000FFF7F8FF0446FFF765F90B490860094877
:1011E000801CFFF7EFFF084988750648001DFFF7D0
:1011F000E9FF0549C8800348801DFFF7E3FF024966
:10120000C87510BD00F00108F8000020024803492D
:10121000486003484860704723016745002002404A
:10122000AB89EFCD2DE9F04104460F4615461E4629
:10123000DDF81880FFF7EAFF3520FFF753FF20465F
:10124000FFF756FF39462046FFF79CFF2946A01CB2
:10125000FFF798FF3146201DFFF794FF4146A01D80
:10126000FFF790FF3520FFF73DFFFFF781FFBDE857
:10127000F08100B502460423FFF760FF034603E058
:10128000FFF75CFF0346521E012B01D1002AF7D164
:1012900002B90523184600BD2DE9F041024600259C
:1012A0000026002000230024002791F803C00CF042
:1012B0000F0591F803C00CF0100CBCF1000F03D027
:1012C00091F802C04CEA050591F800C0BCF1000F8E
:1012D00031D0146800202BE04FF0010C0CFA00F321
:1012E000B1F800C00CEA03069E4220D183004FF003
:1012F0000F0C0CFA03F7BC4305FA03FC4CEA040498
:1013000091F803C0BCF1280F06D14FF0010C0CFA84
:1013100000FCC2F814C00AE091F803C0BCF1480F09
:1013200005D14FF0010C0CFA00FCC2F810C0401CB3
:101330000828D1D31460B1F800C0BCF1FF0F34DD30
:10134000546800202EE000F1080C4FF0010808FA64
:101350000CF3B1F800C00CEA03069E4221D18300D1
:101360004FF00F0C0CFA03F7BC4305FA03FC4CEAF0
:10137000040491F803C0BCF1280F05D100F1080C5A
:1013800008FA0CF8C2F8148091F803C0BCF1480FB9
:1013900007D100F1080C4FF0010808FA0CF8C2F868
:1013A0001080401C0828CED35460BDE8F08102466E
:1013B000002093680B400BB1012000E00020704733
:1013C00041617047016170470AB1016100E041610C
:1013D0007047000010B500BF094800884FF47A71CB
:1013E00000FB01F4074801F0B6FA04440020054967
:1013F00024310880322002F005FA204610BD00009A
:10140000B60000200008004000BFFEE7032000BF38
:10141000011EA0F10102D0B2FAD1704710B54FF40D
:1014200080517F48FFF7C3FFB8B100207D490870A5
:101430007D4908807D48007828B100207B490870EC
:1014400001207B4908707B48007870B300207949FF
:1014500008700B207649087027E072480078A0B920
:1014600071480088401C70490880084600880A2896
:101470001BDD0020088001206C49087000206D49A8
:1014800008700120674908700FE067480088401C19
:101490006549088008460088B0F57A7F05DD0020A0
:1014A000624908700120634908704FF400515C489C
:1014B000FFF77DFFB8B100205F4908705F490880E1
:1014C0005F48007828B100205D4908700220584923
:1014D00008705C48007870B300205A4908700220F8
:1014E0005349087027E054480078A0B95348008851
:1014F000401C52490880084600880A281BDD00204D
:10150000088001204E49087000204E4908700120D3
:10151000494908700FE049480088401C4749088045
:1015200008460088B0F57A7F05DD00204449087040
:101530000120444908704FF480413948FFF737FFD4
:1015400028B1002040490870404908802DE03E48FD
:10155000007888B93D480088401C3C49088008460E
:1015600000880A2821DD0020088003203049087007
:1015700001203549087018E034480088B0F5FA7F3A
:1015800005DA32480088401C304908800DE03048B8
:101590000088401C2E49088008460088052804DD84
:1015A000002008800320224908704FF400411C48A5
:1015B000FFF7FDFE28B10020264908702649088063
:1015C0002DE02448007888B923480088401C22492F
:1015D0000880084600880A2821DD002008800420B1
:1015E0001349087001201B49087018E01A48008848
:1015F000B0F5FA7F05DA18480088401C16490880C3
:101600000DE016480088401C1449088008460088F0
:10161000052804DD0020088004200549087010BD5D
:10162000000C01401D0000201A0000201C000020BA
:10163000320000201E000020230000202000002097
:1016400022000020240000202B0000202600002083
:1016500028000020310000202C0000202E00002057
:101660002DE9F84F4FF0000A0020009083461B49F7
:101670000888FEF717FF82464FF08B415046FEF771
:10168000E9FD04461649FEF7B3FD8246514614486B
:10169000FEF7A8FD054629465046FEF7DBFD044649
:1016A0001049FEF7A5FD00900098FEF765FF06467D
:1016B0000D4A0E4B02F0EEFD044600220C4BFEF7E5
:1016C00007FE8046FEF73FFF1FFA80FB42F20F70D5
:1016D000834500DD83465846BDE8F88FC0000020F2
:1016E0003333534000401C46BF7D1D386744E3BF81
:1016F0000088E34008B50121082000F01FFC1020FD
:101700008DF803000120ADF8000003208DF80200E1
:1017100069460448FFF7C0FD01210248FFF750FE6B
:1017200008BD0000000C014010B50122114602481E
:10173000FFF74AFE10BD0000000C014000BFFEE7AD
:101740007047000070B5002100230F22C47804B355
:10175000154C246804F4E064C4F5E064210AC1F186
:101760000403CA40447804FA03F184781440214306
:1017700009010E4C0678A155047804F01F050124D8
:10178000AC4005786D11AD0005F1E025C5F80041CC
:1017900009E0047804F01F050124AC40044D0678EC
:1017A000761145F8264070BD0CED00E000E400E045
:1017B00080E100E070B500240CE0002506E0002088
:1017C000074901EBC5010855681CC5B2802DF6DB41
:1017D000601CC4B2082CF0DB00F08EF870BD000075
:1017E00019010020F0B514460B46CF1701EB5777CF
:1017F000C7F3C702CF1701EB5777FF10A1EBC7075D
:10180000FEB20123B340DDB24CB1134B03EBC00376
:101810009B5C2B43104F07EBC007BB541AE00E4BE9
:1018200003EBC0039B5CDB430B4F07EBC007BB54D0
:10183000094B03EBC0039B5C2B43074F07EBC0072F
:10184000BB54054B03EBC0039B5CDB43024F07EB30
:10185000C007BB54F0BD00001901002010B5802165
:101860000A48FFF7AFFD40210848FFF7ABFDFFF73F
:10187000CDFD80210548FFF7A3FDFFF7C7FD4021FF
:101880000248FFF79DFDFFF7C1FD10BD000C0140B0
:1018900010B580210648FFF793FD40210448FFF76B
:1018A00091FDFFF7B3FD80210148FFF78BFD10BDCF
:1018B000000C014010B580210848FFF783FDFFF7B9
:1018C000A5FD40210548FFF77DFDFFF79FFD402165
:1018D0000248FFF775FDFFF799FD10BD000C0140B0
:1018E00010B50246012000E050430B1EA1F1010497
:1018F000E1B2F9D110BD000070B500242BE004F175
:10190000B001C8B2002100F0E4F90021084600F05F
:10191000E0F90021102000F0DCF9FFF79FFF7820AC
:1019200000F01EF8FFF7C6FF402000F019F8FFF79F
:10193000C1FF002509E0094901EBC501085D00F080
:101940000FF8FFF7B7FF681CC5B2802DF3DBFFF778
:101950009FFF601CC4B2082CD1DB70BD19010020B0
:1019600070B5044600251BE004F0800020B1802102
:101970000D48FFF727FD03E080210B48FFF720FD0E
:10198000FFF744FD40210848FFF71CFDFFF73EFD2F
:1019900040210548FFF714FD6006040E681CC5B21F
:1019A000082DE1DB70BD0000000C01402DE9FE4F69
:1019B0000746884692461C460197CDF80080082CC1
:1019C00002D14FF006091FE02046E31704EB5373E2
:1019D000DB1021464FEAE47C04EB5C7C4FEAEC0C24
:1019E000A4EBCC0CBCF1000F02D04FF0010C01E0D5
:1019F0004FF0000C6344224604EBD27C4FEA6C0C9F
:101A000003FB0CF303F0FF09AAF12000C6B2002586
:101A10005EE0082C07D106EB4600304901EB4000A0
:101A200010F805B01DE00C2C07D106EB46002C4940
:101A300001EB800010F805B013E0102C05D1294807
:101A400000EB061010F805B00BE0182C07D106EBE0
:101A5000C600254901EB800010F805B001E0BDE8A3
:101A6000FE8F002002901CE00BF0010028B14146DF
:101A700038460C9AFFF7B6FE09E00C9808B9012029
:101A800000E00020024641463846FFF7ABFE4FEA31
:101A90006B0B08F1010000F0FF080298401CC0B277
:101AA000029002980828DFDB781CC7B2082C0BD004
:101AB00004EBD4714A100199791A8A4204D1019F2A
:101AC00000980830C0B20090DDF80080681CC5B2F4
:101AD0004D459EDBFFF710FF00BFC0E7E44C000858
:101AE0000C4F000880530008705900082DE9FC4F86
:101AF0000746884616461C46BB46CDF8048020465D
:101B0000E21704EB5272D2102146E31704EB537331
:101B1000DB10A4EBC3030BB1012300E000231A4444
:101B2000624392B20092002555E0102C05D12C485A
:101B300000EB461010F805A01BE0182C07D106EBAF
:101B4000C600284901EBC00010F805A011E0202CC8
:101B500005D1254800EBC61010F805A009E0402C7F
:101B600005D1224800EB462010F805A001E0BDE8B1
:101B7000FC8F4FF000091CE00AF0010028B141463B
:101B800038460B9AFFF72EFE09E00B9808B90120A2
:101B900000E00020024641463846FFF723FE4FEAA8
:101BA0006A0A08F1010000F0FF0809F1010000F0E5
:101BB000FF09B9F1080FDFDB781CC7B2A7EB0B00F8
:101BC000A04204D15F4601980830C0B20190DDF810
:101BD0000480681C85B200988542A6DB00BFC6E77A
:101BE000CC6600084C70000894700008147100085E
:101BF0002DE9FF4F83B0064691461F46DDE9104AA6
:101C00004FF0000B082C01D14FF0020B002532E001
:101C1000781B401EC1B20A20FFF762FEB9FBF0F04C
:101C20000A21B0FBF1F201FB1208B8F1000F0FD14D
:101C300004EBD4710BEB610101FB0561C8B22346D3
:101C40003022CDF800A002940499FFF7AFFE10E017
:101C500004EBD4710BEB610101FB0561C8B208F123
:101C60003001CAB22346CDF800A002940499FFF7D0
:101C70009DFE681CC5B2BD42CADBFFF73DFE07B042
:101C8000BDE8F08F2DE9F84306460F4614461D4681
:101C9000DDF8208013E0CDF8008022782B4639460D
:101CA0003046FFF783FE082D02D1B01DC6B205E015
:101CB000284605EBD07106EB6101CEB2641C20789A
:101CC000202802DB20787E28E5DDFFF715FEBDE841
:101CD000F88370B505460C46FFF7C0FD7820FFF786
:101CE0003FFEFFF7E7FD1CB14020FFF739FE02E0A1
:101CF0000020FFF735FEFFF7DDFD2846FFF730FE39
:101D0000FFF7D8FDFFF7C4FD70BD08B50120102313
:101D10003D22194600900020FFF7E8FE0120102325
:101D20003E22194600901846FFF7E0FE01201023DE
:101D30003A22194600902020FFF738FE0120102398
:101D40000022114600901046FFF7D0FE012010231C
:101D50000222002100901846FFF7C8FE0120102340
:101D60003A22002100902020FFF720FEFFF7C4FD5B
:101D700008BD08B5012010231C2200210090184640
:101D8000FFF7B4FE012010231D2200210090202027
:101D9000FFF7ACFE012010233A22002100904020E2
:101DA000FFF704FE08BD000038B504462D48007852
:101DB000012806D002280DD0032814D0042824D1ED
:101DC0001AE0012010232022002100900846FFF78E
:101DD000EDFD1BE001201023202219460090002079
:101DE000FFF7E4FD12E001201023202211460090AD
:101DF0000020FFF7DBFD09E0012010232022302125
:101E000000900020FFF7D2FD00E000BF00BF012CD2
:101E100020D1012010233E22002100900846FFF728
:101E2000C5FD012010232022194600900020FFF755
:101E3000BDFD012010232022114600900020FFF755
:101E4000B5FD012010232022302100900020FFF753
:101E5000ADFD00E000BF00BF02480470FFF74CFD7D
:101E600038BD00000D00002008B50120102300221D
:101E7000114600901846FFF739FE01201023022278
:101E8000002100902020FFF731FE012010231A22AC
:101E9000002100903020FFF729FE012010231B2293
:101EA000002100904020FFF721FE012010233A225C
:101EB000002100905020FFF779FD08BD10B50021EA
:101EC000054800F065FD0020044908800121024812
:101ED00000F035FD10BD000000080040B6000020F5
:101EE0007047000001460020034A506820F440403B
:101EF00008435060704700000010024029B1064AB4
:101F000052690243044B5A6104E0034A5269824316
:101F1000014B5A61704700000010024029B1064A87
:101F2000D2690243044BDA6104E0034AD269824376
:101F3000014BDA61704700000010024029B1064AE7
:101F400092690243044B9A6104E0034A9269824316
:101F5000014B9A617047000000100240FEB500245A
:101F6000FA48FB4908600020FA490860322428E05A
:101F7000F94850F82410A4F13200F74A42F8201032
:101F8000F64850F82410A4F13200F44A42F8201028
:101F9000F14850F82400EE490968884204D2EE481E
:101FA00050F82400EA490860EB4850F82400E94959
:101FB0000968884204D9E84850F82400E5490860D7
:101FC000641C962CD4DB642471E0601EE24951F855
:101FD0002000E3490860E04A02EB8401DF4A02EB9B
:101FE000840001F0FBFFDC4850F82400DC4909685C
:101FF000884232D9D84951F82410D94A1268881A2F
:10200000FEF750FA0546D3490968D14A1268881A82
:10201000FEF748FA064631462846FEF71BF9054604
:10202000D0492846FEF7E4F80546CF480068FEF799
:1020300039FA06462946FEF7D5F805460021284616
:10204000FEF7CAFA03D20020C74908602EE02846EE
:10205000FEF72DFAC449086028E0BF4951F8241062
:10206000BF4A1268501AFEF71DFA0546B9490968B9
:10207000B74A1268881AFEF715FA0646314628460E
:10208000FEF7E8F80546B7492846FEF7B1F80546D9
:102090002846FEF70CFAB44909680844B2490860BA
:1020A00008460068FF2801D9FF200860641C962CB0
:1020B0008BDBAE48AE49AF4AAF4BCDE90021029071
:1020C000A54AAE480168A54801F0DAFDAC480178A0
:1020D0000078401CAA4A1070022972DD00201146C7
:1020E0000870A248007801286CD1A14800689628A1
:1020F00068DA9F4800683C2864DD0020A149086038
:10210000A1480068042819D10120A04908600020D6
:102110009D4908600C240EE09D4850F824000A30C8
:1021200093490968884205DD002098490860042029
:1021300095490860641C102CEEDB04E092480068AE
:10214000401C914908609148006800287BD1002418
:1021500006E08F49601C51F8200041F82400641CFF
:102160000F2CF6DB824800688949C86389480068FB
:10217000102804DA87480068401C8649086000205F
:102180008549086083480068022803DA00208349F3
:10219000086058E07F480068042814DA0E2408E03C
:1021A0007B4850F824007C49096808447A49086053
:1021B000641C102CF4DB78480068401077490860F4
:1021C00041E051E143E073480068082812DA0C242A
:1021D00008E06F4850F824006F49096808446E49C8
:1021E0000860641C102CF4DB6B48006880106B499D
:1021F000086028E067480068102812DA082408E020
:10220000634850F82400644909680844624908603A
:10221000641C102CF4DB60480068C0105F49086043
:1022200011E0002408E05A4850F824005A4909688F
:10223000084459490860641C102CF4DB56480068B7
:1022400000115649086000205049086011E0002044
:102250004D4908604B480068022805D100204F49CD
:1022600008604C49086004E046480068401C454945
:10227000086040480078012867D13F48006850282E
:1022800063DD00204649086046480068042819D1EB
:102290000120454908600020424908600C240EE0F6
:1022A000424850F824000A3833490968884205DA60
:1022B00000203D49086004203A490860641C102C45
:1022C000EEDB04E037480068401C364908603648B9
:1022D0000068002821D1002406E03449601C51F830
:1022E000200041F82400641C0F2CF6DB2248006813
:1022F0002E49C8632E480068102804DA2C4800686C
:10230000401C2B49086000202A49086028480068C2
:10231000022803DA0020284908608FE0244800687A
:1023200004284BDA0E2408E0204850F82400214904
:10233000096808441F490860641C102CF4DB1D4820
:10234000006840101C49086078E07BE0FFFF030054
:10235000A4000020A80000201C160020C4130020A8
:10236000AC00002000007F43B00000207800002077
:1023700074000020700000206C0000206800002025
:10238000B4000020A00000208C0000209400002059
:1023900074180020880000207C00002060000020CD
:1023A0009C0000209000002098000020B41800201D
:1023B0008400002080000020640000202B4800687A
:1023C000082812DA0C2408E0294850F8240029498A
:1023D0000968084427490860641C102CF4DB254870
:1023E000006880102449086028E020480068102810
:1023F00012DA082408E01E4850F824001D49096834
:1024000008441C490860641C102CF4DB194800685F
:10241000C0101949086011E0002408E0144850F881
:10242000240014490968084412490860641C102CEF
:10243000F4DB1048006800110F49086000200F49C4
:10244000086011E000200E4908600E48006802286C
:1024500005D10020084908600449086004E00948E3
:102460000068401C07490860FEBD00008400002091
:10247000B418002080000020640000209800002094
:10248000900000209C0000207047000070B5A4B0B0
:1024900000F038F880211548FEF789FF012801D1A6
:1024A00013A000E013A004461349C868FEF764F8BF
:1024B00005460B461048007F0F49098A0E4A1268EC
:1024C000CDE90204CDE900212A460C4904A800F018
:1024D00055FC04A800F04CFB01201023084A002101
:1024E00000902820FFF7CEFB24B070BD000801400B
:1024F000CAC70000B7F10000D800002060740008CF
:10250000340000202DE9F04701F04AF904466748FD
:10251000007820B1012812D0022842D119E0644885
:102520000068201AB0F5C87F08D9FEF799FD614808
:10253000046001205D4908705D48046031E05D4839
:102540000068201AB0F5C87F02D9022057490870E8
:1025500027E0FEF7CDFC584908800846B0F9000096
:10256000FDF797FF05465549FDF774FE5449C860CD
:102570005148B0F90000FDF78CFF80464F49FDF748
:1025800069FE0546FDF7F8FF064632460B464DA1AB
:102590004E4800F0F3FB00204449087044480460B2
:1025A00000BF00BF42484068201A322869D9FFF7AF
:1025B000D5FC47480068401C45490860454800680C
:1025C000142801DD012000E0002005464248007883
:1025D000854201D040480570ADB301F0E1F83C49B7
:1025E00009684718FDF79AFD0646C7F3031806F079
:1025F0000F0989EA0800C11700EB11710911A0EB5E
:10260000011A0AF150003349086008460068502852
:1026100001DA502008602F4800685F2802DD5F2043
:102620002C4908602D4800682A49096888420BD067
:102630003112052291FBF2F302FB131000F15E014F
:10264000274A116004E004E0264800682449086035
:1026500008E000201F490860214908601F49086000
:10266000204908601B4800681C4908601C48006835
:102670001C49086017480068114908600C4844600C
:1026800000BFFEF7EDFF0E4908820948C068201A16
:10269000962808D900F00CFB0546FDF721FF0849F4
:1026A00008770348C460BDE8F087000044000020BC
:1026B0004C0A0020480000205C000020000020415F
:1026C000D800002025342E3166204300340000203D
:1026D0005800002060000020540000204C00002022
:1026E00064000020500000200B480078022810D120
:1026F0000A48007868B9002007490870084800783F
:10270000401C0749087008460078042801DD0120B4
:102710000870034800787047320000200300002052
:102720000B00002010B500F001F810BD0CB5002022
:10273000019000903348006840F4803031490860CF
:1027400000BF3048006800F4003000900198401C41
:102750000190009818B90198B0F5A06FF1D12948FF
:10276000006800F4003010B10120009001E000206A
:1027700000900098012843D12348006840F01000E1
:10278000214908600846006820F0030008600846F8
:10279000006840F0020008601A4840681949486023
:1027A0000846406848600846406840F480604860D9
:1027B0000846406820F47C1048600846406840F4B1
:1027C000E81048600846006840F08070086000BF6C
:1027D0000C48006800F000700028F9D009484068F3
:1027E00020F00300074948600846406840F00200B6
:1027F000486000BF0348406800F00C000828F9D189
:102800000CBD000000100240002002401CB5084929
:102810000868FDF765FE04460120102102232246C8
:10282000CDE9001000215A20FFF7E2F91CBD00009D
:10283000F8000020042808D14FF0E021096941F098
:1028400004014FF0E022116107E04FF0E021096937
:1028500021F004014FF0E022116170477047000041
:1028600010B50948006840F00100074908600846B3
:1028700040680649084004494860FFF753FF4FF09D
:1028800000600349086010BD001002400000FFF81E
:1028900008ED00E010B50121880700F05FF838B1BD
:1028A000FEF7BCFD00F082FF0121880700F044F82C
:1028B00010BD7FB504460D4601210846FFF72EFBEB
:1028C0000020ADF80A00ADF80600ADF80850ADF8EC
:1028D00004408DF80C0001A94FF0804000F05AF838
:1028E00001221146900700F04AF81C208DF80000E4
:1028F00001208DF803008DF8010002208DF8020000
:102900006846FEF71FFF0121880700F018F87FBD19
:1029100010B50121064800F021F840B1012104481A
:1029200000F00AF803480088401C0249088010BDE6
:1029300000080040B6000020CA430282704721B15F
:10294000028842F00102028004E002884FF6FE7322
:102950001A40028070470146888C704730B50246A5
:10296000002000230024158A05EA0103958905EA61
:10297000010413B10CB1012000E0002030BD1AB1F8
:1029800083890B43838102E083898B438381704772
:1029900081847047002202881D4B98420ED01D4B47
:1029A00098420BD0B0F1804F08D01B4B984205D015
:1029B0001A4B984202D01A4B984204D14FF68F73AB
:1029C0001A404B881A43174B984207D0164B98422F
:1029D00004D04FF6FF431A40CB881A4302808B88FD
:1029E00083850B8803850A4B98420BD0094B98428C
:1029F00008D00E4B984205D00D4B984202D00D4B9B
:102A0000984201D10B7A038601238382704700002C
:102A1000002C014000340140000400400008004048
:102A2000000C004000100040001400400040014035
:102A3000004401400048014010B50446012C04D078
:102A4000022C1AD0032C3FD12AE021480078032819
:102A500012D100201E4908701E4908684FF07E51AF
:102A6000FDF76EFB1B49086008681B49FDF7BEFDBA
:102A700002D21A481749086027E015480078032851
:102A80000DD10020124908701248807D401C114968
:102A900088750846807D782801DD3C20887514E023
:102AA0000B48007803280ED1002009490870094816
:102AB000C0880A300749C8800846C088B0F5FA7F48
:102AC00001DD5020C88000E000BF00BF10BD000045
:102AD00032000020F8000020000020420000A04149
:102AE00010B540F22551124800F0AFF8F0B110488F
:102AF00000F0D5F8C4B20F4800887F280ADA0D49E3
:102B00000888411C0B4A11800B490C540020128884
:102B1000885402E000200749088001200749087016
:102B200040F22551024800F074F800BF10BD0000CB
:102B300000440040C6000020F4180020C800002017
:102B400010B5044600BF8021084800F071F8002845
:102B5000F9D02146054800F0A7F800BF40210348FE
:102B600000F066F80028F9D010BD000000440040D5
:102B700010B5044603E014F8010BFFF7E1FF2078DD
:102B80000028F8D110BD000010B540F225510A48C8
:102B900000F05BF878B1084800F081F8C4B2312C3D
:102BA00003D10120054908703524322C03D10020BF
:102BB00002490870352410BD004800400100002083
:102BC00010B5044600BF8021084800F031F8002805
:102BD000F9D02146054800F067F800BF40210348BE
:102BE00000F026F80028F9D010BD00000048004091
:102BF00010B5044603E02078FFF7E2FF641C20785C
:102C00000028F8D10D20FFF7DBFF0A20FFF7D8FFDF
:102C100010BD10B50022002340F66A14A14200D175
:102C200000BF0A1201249440A3B2DC43048010BD0B
:102C300002460020B1F5007F00D100BF13880B4091
:102C40000BB1012000E00020704770B5024600245F
:102C500000230025002040F66A16B14200D100BFD3
:102C6000C1F3421501F01F03012606FA03F3012DFB
:102C700002D19689334006E0022D02D1168A3340F4
:102C800001E0968A33400C12012606FA04F41688F5
:102C9000344013B10CB1012000E0002070BD0146AA
:102CA0008888C0F308007047C1F30802828070472B
:102CB0002DE9F84F4FF0000A0024A346A14631E069
:102CC000012021490860142000F0BAFD00201F49AE
:102CD000C1F8840100BF1C48743800680028FAD08D
:102CE000FFF7ECF8641C00BF17487438006801282F
:102CF000FAD0FEF793F8FEF76DFB82465046FDF7DB
:102D0000D1FB0090FDF738FC07460022104BFDF781
:102D100051FB0546FDF743FC834649465846FDF7FF
:102D20000FFA8146052CCBD14846FDF725FC074616
:102D30000022084BFDF73EFB0546FDF730FC8346BD
:102D40005846BDE8F88F000084012142000021426E
:102D500000004D400000144000BFFEE70FB4054BDB
:102D600010B503A9044A029800F07EF910BC5DF882
:102D700014FB00007D380008D00000200FB4084B81
:102D800010B504A902AA039800F06EF9044602A93E
:102D9000002000F000FD204610BC5DF814FB000090
:102DA00097370008490050EAC12018BF04204A0D97
:102DB00018BF40F0010040F2FF72B2EB515F08BF54
:102DC00040F00200012808BF052070472DE9F041BE
:102DD0004F1E00EBC7010446D1E9000115461E460F
:102DE00037F006020DD02A463346FDF771FA7F1EF2
:102DF00004EBC703D3E90023FDF7EDFC37F006022F
:102E0000F1D1022F25D0042F13D0062F18BFBDE813
:102E1000F0812A463346FDF75BFAD4E90A23FDF731
:102E2000DAFC2A463346FDF753FAD4E90823FDF7C6
:102E3000D2FC2A463346FDF74BFAD4E90623FDF7C8
:102E4000CAFC2A463346FDF743FAD4E90423FDF7CA
:102E5000C2FC2A463346FDF73BFAD4E90223FDF7CC
:102E6000BAFC2A463346FDF733FAD4E90023BDE81D
:102E7000F041FDF7B0BC00000022134610460149A6
:102E8000FDF798BA0000F03FFDF7A5BC00221346FD
:102E900010461146FDF78EBA40F2013200204FF085
:102EA000E041FDF73FBD0000024A00201107FDF799
:102EB00039BD000001FDFFFF02E008C8121F08C174
:102EC000002AFAD170477047002001E001C1121FAB
:102ED000002AFBD1704700000149086070470000DC
:102EE000D40000202DE9FF5F82B00021DDE904302D
:102EF000020DDDF840B0034318D044F61050A2F2A2
:102F0000FF3242431514119801281FD0A5EB0B0086
:102F1000401C5FEA000A4FF000064E4FDFF8389180
:102F2000B046504615D5CAF1000413E011980124AB
:102F30004AA3012801D16FEA0B010298119AC0E956
:102F40000031C0E9024206B0BDE8F09FCBF10000BD
:102F5000DFE704460021404A491842EB0450CDE91E
:102F6000001012E0E00707D032463B464046494693
:102F7000FDF7AEF98046894632463B461046194673
:102F8000FDF7A6F906460F466410002CEAD1DDE9EC
:102F90000401DDE90023BAF1000F06DAFDF798F924
:102FA00042464B46FDF794F905E0FDF703FA424629
:102FB0004B46FDF7FFF904460E460022284BFDF76D
:102FC000F1FC03D84FF0FF30014607E00022254B0B
:102FD00020463146FDF7FFFBFDF7CCFC102409E04D
:102FE000002C0ADB0A220023FDF720FB039B303272
:102FF0001A55641E50EA0102F2D1641C039AC4F10E
:1030000011031444119A012A03D0012208430DD15F
:103010000AE0084304D000204FF0110B119072E732
:10302000A3EB0B056D1E0DE05B4504DD4FF00002C8
:1030300005F1010504E003DA4FF00002A5F10105F6
:10304000002AECD002981199C0E90231C0E900458C
:1030500079E70000000014400000F03F300000005D
:103060000000F0430000E03F2DE9FF4F95B09B4684
:103070008946064600250FE2252877D100242746F9
:10308000F84A0121059400E0044316F8013F203B73
:1030900001FA03F01042F7D130782A2811D06FF0EE
:1030A0002F033078A0F13002092A16D8059A44F08F
:1030B000020402EB820203EB42021044761C0590EC
:1030C000EFE759F8042B0592002A03DA504244F442
:1030D0000054059044F00204761C30782E2816D156
:1030E00016F8010F44F004042A280DD06FF02F02C7
:1030F0003078A0F13003092B09D807EB870302EBE6
:103100004303C718761CF3E759F8047B761C307824
:103110006C280FD006DC4C2817D068280DD06A2800
:1031200014D104E0742810D07A280FD10DE044F4B3
:1031300000140AE044F4801401E044F4401472786E
:10314000824202D104F58014761C761C3078662801
:103150000BD013DC582877D009DC002875D045281F
:10316000F6D04628F4D047281AD19DE118E063280C
:1031700035D0642879D0652812D195E1702873D0B4
:1031800008DC6728F1D069286FD06E280DD06F2831
:1031900006D1B5E073282CD0752875D0782874D066
:1031A0005A46179990476D1C75E1C4F302500228E6
:1031B00009D003280DD0D9F8001004280DD00D60D7
:1031C00009F1040967E1D9F80010EA17C1E90052D2
:1031D000F6E7D9F800100D80F2E70D70F0E719F866
:1031E000041B8DF8001000208DF80100EA46012034
:1031F00003E059F804AB4FF0FF3061074FF00001D6
:1032000002D40DE008F101018846B9420FDA804589
:10321000F8DB1AF808100029F4D108E008F10101E0
:1032200088468142FADB1AF808100029F6D1059881
:103230005B46A0EB080721463846179A00F094FA3F
:10324000284400EB080507E04DE029E10DE01AF8FD
:10325000010B5A4617999047B8F10108F7D25B461F
:1032600021463846179A13E142E00A220092C4F33D
:1032700002524FF0000A022A08D059F804CB032A60
:103280004FEAEC710AD00DE029E02AE009F10701CC
:1032900021F00702F2E802C1914609E00FFA8CFC26
:1032A0004FEAEC71042A03D14FFA8CFC4FEAEC711F
:1032B000002907DA0A460021DCF1000C61EB02016B
:1032C0002D2202E0220504D52B228DF804200122B4
:1032D00003E0E20701D02022F7E7904659E00A21F7
:1032E00002E010220DE010214FF0000A00910BE0E7
:1032F00010224FF0000A44F004040827009203E073
:1033000008224FF0000A0092C4F30252022A05D0AC
:1033100059F804CB0021032A08D009E009F107017C
:1033200021F00702F2E802C1914605E01FFA8CFC89
:10333000042A01D10CF0FF0C4FF00008220728D519
:10334000702806D0009B83F0100353EA0A0305D0CF
:103350000EE040228DF80420012208E05CEA010220
:1033600006D030228DF804208DF805000222904608
:10337000009B83F0080353EA0A030AD15CEA0102C6
:1033800001D1620705D530228DF804204FF00108E5
:103390007F1E582804D034A003900EA802900DE0A0
:1033A00036A0F9E753466046009AFDF73FF9844698
:1033B0000398825C0298401E029002705CEA010051
:1033C000F0D1029806A9081A00F1200A600702D578
:1033D00024F4803400E00127574502DDA7EB0A0002
:1033E00000E0002000EB0A01009005984144401ADB
:1033F0000590E00306D45B462146179A059800F035
:10340000B3F90544002706E001A85A46C05D1799A4
:1034100090476D1C7F1C4745F6DBE0030CD55B46EF
:103420002146179A059800F09FF9054404E03020E2
:103430005A46179990476D1C0099481E0090002924
:10344000F5DC08E0029802995A460078491C02917E
:10345000179990476D1CBAF10001AAF1010AF1DC3D
:1034600065E1000009280100303132333435363748
:1034700038396162636465660000000030313233C0
:103480003435363738394142434445460000000060
:1034900000F058F90544761C307800287FF4ECAD34
:1034A00019B02846BDE8F08F620700D4062709F15D
:1034B000070222F0070CFCE80223E14603F0004873
:1034C0005FEA080C02D00FF2702C0DE05FEA045C9A
:1034D00002D50FF2682C07E05FEAC47C02D00FF23D
:1034E000602C01E0AFF2700C4FF0FF3823F0004386
:1034F000CDF850C065280CD006DC452809D04628F8
:103500001DD047283DD13DE0662818D067287ED1E0
:1035100038E00021112F01DB112000E0781CCDE9FB
:10352000000106A90EA8FFF7DDFCDDE90F010E9AE8
:1035300003910021009207F1010A04914DE04FF040
:1035400000400097CDE9011006A90EA8FFF7CAFCBC
:10355000DDE90F0203920E9B11990022DDF80CA009
:103560000093049211B9791C00EB010AB7EB0A0031
:1035700004D4C0F1FF3007F1010A0490AAEB070060
:10358000019044E0012F00DA01270021112F01DD15
:10359000112000E03846CDE9000106A90EA8FFF78A
:1035A000A1FCDDE90F010E9A039100210491009224
:1035B000BA4621070CD40399514500DA8A46BAF17C
:1035C000010F05DD009AAAF10101515C302908D0F4
:1035D000B84202DA10F1040F06DA0121CDE9011038
:1035E00015E0AAF10101E9E7002805DC049901448E
:1035F0000491AAEB000102E0411C514500DD8A461E
:103600000499401A401C01904FF00040029020079E
:1036100004D40198504501DBCDF8048000208DF8DA
:103620004F0002980DF14F07B0F1004F25D02B202D
:103630000E9002984FF0020800280CDA40420290E7
:103640002D200E9007E00A210298FCF7D9FF3031B7
:10365000029007F8011DB8F10001A8F10108F2DCA1
:1036600002980028EFD1791E0E980870307800F08B
:10367000200040F0450007F8020D12A8C01B00F121
:1036800007081498007800B1012000EB0A010198A6
:1036900001EBE07105984144401A401E0590E0039B
:1036A00006D45B462146179A059800F05DF805445C
:1036B0001498007818B15A46179990476D1CE0038A
:1036C00024D55B462146179A059800F04DF805442D
:1036D0001CE00498002807DBDDE90301884203DDD4
:1036E0000098405C179901E0179930205A4690479E
:1036F000049805F10105401C04900198401E0190BA
:1037000004D12E205A46179990476D1CBAF100013A
:10371000AAF1010ADDDC05E017F8010B5A461799FA
:1037200090476D1CB8F10001A8F10108F4DC5B467C
:103730002146179A0598ABE62D0000002B000000EB
:10374000200000002DE9F041044600251E461746E2
:10375000880404D405E039462020B0476D1C641E5F
:10376000F9D52846BDE8F0812DE9F0410446002551
:103770001E469046C80301D5302700E02027880464
:1037800004D505E041463846B0476D1C641EF9D5A6
:103790002846BDE8F0810A68531C0B601070704722
:1037A0000148006870470000BC0000200248006823
:1037B000401C014908607047BC00002010B5044659
:1037C0006FF00400FFF736F8E11704EB5171C1F315
:1037D000C701094A11701046007800EB4001C1EBA7
:1037E000C0104FF6FF7101EAC000044908800020B4
:1037F0000349086010BD0000B8000020BA00002096
:10380000BC00002001460D4A12884A434FF0E023D5
:103810005A6100229A6101221A6100BF4FF0E02232
:10382000106900F001021AB100F48032002AF5D0CC
:1038300000224FF0E0231A619A617047BA0000201D
:1038400001460D4A12784A434FF0E0235A610022A4
:103850009A6101221A6100BF4FF0E022106900F066
:1038600001021AB100F48032002AF5D000224FF094
:10387000E0231A619A617047B800002070B50446D1
:103880000D46E1B20548FFF70FFA00BF0348008874
:1038900000F080000028F9D0204670BD00380140BB
:1038A00010B540200949086000F012F820200749AF
:1038B000091F086000F00CF820200449086000F09F
:1038C00007F840200149091F086010BD1408014095
:1038D000002001E0411CC8B21E28FBDB704700003D
:1038E00010B5402007490860FFF7F2FF2020054986
:1038F0000860FFF7EDFF20200249091D0860FFF76F
:10390000E7FF10BD1008014070B50024002516E047
:103910006006040E20200C490860FFF7D9FF0A4812
:103920000838006800F0400008B1601CC4B22020D4
:103930000549091D0860FFF7CBFF681CC5B2082DBB
:10394000E6DB204670BD00001008014070B504465B
:10395000002520E004F0800018B140200F490860E5
:1039600003E040200D49091D0860FFF7B1FF20204A
:103970000A490860FFF7ACFF20200849091D0860CC
:10398000072D02D14020091F08606006040EFFF7D2
:103990009FFF681CC5B2082DDCDB70BD100801401C
:1039A00010B540200949086020200860FFF790FF0B
:1039B00040200649091D0860FFF78AFF20200349BF
:1039C000091D0860FFF784FF10BD000010080140CA
:1039D00010B54020064908602020091F0860FFF745
:1039E00077FF40200249091F0860FFF771FF10BDF3
:1039F0001408014010B540200C490860FFF768FF2B
:103A000020200A490860FFF763FF0848083800686B
:103A100000F0400008B1012400E000242020034908
:103A2000091D0860FFF754FF204610BD1008014033
:103A300008B5FEF715FF4820FFF7C0FEFDF74EF86A
:103A4000FDF758FEFDF7CCF96420FFF7DBFEFDF72C
:103A5000BDFB01F031F9674908686749FCF7C6FD0D
:103A60000CD36448807D782808DC6248C07D6428D7
:103A700004DC6048C088B0F5FA7F09DD0A206423C1
:103A800050221E2100905D48FDF7CCFBFDF79EFB08
:103A900040F2E7314720FEF70CFF59A0FFF75EF92F
:103AA00059A0FFF7A5F84FF49670FFF7ABFE58A0AA
:103AB000FFF79EF89DE0FFF773FE05465748006844
:103AC000281A642803D9FEF71DFD544805605448A0
:103AD0000478544800785449097888421AD0FDF790
:103AE00069FE514800784F4908704F480078012816
:103AF00004D0022805D0032809D105E0FEF705F916
:103B000005E0FEF736F902E0FEF7AEF900BF00BFB0
:103B1000FDF7F2FE44480078012802D003285DD169
:103B200006E0FEF7B3FCFDF72DF9FDF77FF955E050
:103B3000FEF7DAFD0646002C4FD03C4800780128FD
:103B400022D1022C03D0032C01D0042C05D1FDF787
:103B5000D3FE0020324908703FE0012C3DD1002007
:103B600032490870012032490870FDF723FEFEF744
:103B70007BF9FEF74BFE3046FEF716F9FDF7BCFE6B
:103B800000202749087028E0032C01D0042C0AD11A
:103B90003046FEF751FFFEF739FEFDF7ADFE00207F
:103BA0001F49087019E0012C17D101201E49087027
:103BB0000020204908700F490868FCF791FC87B283
:103BC0000C48C07D00900B48C388827D39460B4865
:103BD000FDF728FB00201249087000BF00BF1648FF
:103BE0000068281A192803D9FDF786FE12480560D7
:103BF00000BF60E7F80000200000204200F001084C
:103C00005374617274200A0041463A333000000058
:103C100041373A30303030330000000010000020CF
:103C2000320000200E0000200000002003000020D1
:103C30000400002018000020140000202DE9F8479F
:103C400005460C4616461F46DDE90A9ADDF8248033
:103C50003B46324621462846CDF8008000F051FA16
:103C60004B4632462146284600F0A0FA20685045CF
:103C700001DA206800E050462060BDE8F8870000C7
:103C80002DE9FF4FA4B083468846002023900024EE
:103C900005E05BF82410239808442390641C4445F5
:103CA000F7DB2398B0FBF8F02390002408E05BF8E2
:103CB00024102398081A4042C44941F82400641C87
:103CC0004445F4DB002417E0C04951F824200B469A
:103CD000611C53F821100A44A11C53F821100A4416
:103CE000E11C53F821105018C11700EB9171891095
:103CF0001A4642F82410641C922CE5DB00270024AD
:103D000004E0B24850F824000744641C962CF8DB09
:103D1000962097FBF0F71E2F00DA1E273C2F00DDC0
:103D20003C27002404E0002012A941F82400641C70
:103D30000F2CF8DB0F2004219623A44ACDE9007153
:103D4000029021A912A8FFF779FF00201190219875
:103D5000022821DB01240BE012A850F82410601E79
:103D600012AA52F82000091A119808441190641CF4
:103D700021988442F0DB2198401E119991FBF0F0CC
:103D8000119040F6B831119891FBF0F13298016032
:103D900001213398017005E08D49329801600021BE
:103DA0003398017000240BE05BF82400874941F848
:103DB0002400269850F82400864941F82400641C09
:103DC0004445F1DB21982290002005900026002434
:103DD00004E0002006A941F82400641C052CF8DB4F
:103DE00000240EE012A850F82400962808DD784937
:103DF0002798016000213198017028B0BDE8F08F4C
:103E0000641C22988442EDDB0024A3E04FF07F4045
:103E10000D900C9012A9601C51F8200051F824104C
:103E2000401A03287EDD12A850F8245016E0674897
:103E300050F825100C98814204DD644850F82500A4
:103E40000C900B95634850F825100D98814204DDC5
:103E5000604850F825000D90AA466D1C12A9601C00
:103E600051F82000A842E2DC601C51F820005949BA
:103E700051F8200012A951F82410564A52F8211086
:103E8000401A12A951F82410AAEB010148431090DE
:103E900012A9601C51F8200051F82410411A109802
:103EA00090FBF1F012A951F8241052F821100844A7
:103EB0001090104650F82A101098081A109012A965
:103EC000601C51F82000414951F8200012A951F816
:103ED00024103E4A52F82110401A12A951F8242009
:103EE0000B99891A48430F9012A9601C51F82000C1
:103EF00051F82410411A0F9890FBF1F012A951F8D3
:103F00002410324A52F8211008440F90104650F8FD
:103F10002A100F98081A0F900C9910984843C01156
:103F2000049000E015E00D990F984843C0110390EC
:103F3000039800280DDD052E0BDA049848B16421A2
:103F400004984843039990FBF1F006A941F8260034
:103F5000761C641C2298401EA0423FF757AF3146A2
:103F600006A800F05CF9304606EBD0714FEA610913
:103F7000B9F1010F0CDDA9F1010106AA52F82110D7
:103F800052F82920881800EBD0714910059103E000
:103F900006A850F829000590059802280DDD05981F
:103FA000B8280ADA0C490598085C0E9027990E98F3
:103FB000086001213198017005E0054927980160EA
:103FC00000213198017000BF17E70000640A00204B
:103FD00019FCFFFFBC0C002014730008F8B5044660
:103FE0000D46002028602060694600F061F86946AF
:103FF000012000F05DF8FFF7D3FCAE20FFF7A6FC30
:10400000FFF7F8FC00B14FE00720FFF79FFCFFF738
:10401000F1FC00B148E0FFF7C3FCAF20FFF796FCCE
:10402000FFF7E8FC00B13FE0FFF76EFC0646FFF744
:1040300037FC3604206830442060FFF765FC0646F4
:10404000FFF72EFC3602206830442060FFF75CFC4E
:104050000646FFF725FC206830442060FFF754FC3B
:104060000646FFF71DFC3604286830442860FFF739
:104070004BFC0646FFF714FC3602286830442860E3
:10408000FFF742FC0646FFF70BFC28683044286027
:104090002068C0F3110020602868C0F31100286078
:1040A000FFF796FC0120F8BDFFF792FC0020FAE72D
:1040B00070B505460C46FFF773FCAE20FFF746FCD3
:1040C000FFF798FC00B118E02846FFF73FFCFFF728
:1040D00091FC00B111E0FFF763FCAF20FFF736FC65
:1040E000FFF788FC00B108E0FFF70EFC2070FFF737
:1040F000F7FBFFF76DFC012070BDFFF769FC0020A6
:10410000FAE72DE9F04705461E46089C01204FF0CE
:104110000008002300274FF0040C4FF00009C1F8FD
:1041200000903DE0BFBB52F82090A14509DD52F858
:1041300020A0A0F1010952F82990CA4501DD4FF0F5
:104140000108B8F1010F2AD152F82090A14505DAF3
:10415000634503DA4FF00008002320E063451BD1DC
:1041600052F82090A1451ADAA0F1010952F82990DD
:10417000A14514DBD1F80090B9F10F0F07DAD1F89F
:1041800000A00AF10109C1F8009045F82A000023B7
:104190009846082703E001E05B1C00E07F1E401CFE
:1041A000A6F101098145BDDCBDE8F0872DE9F04F9E
:1041B00005460C469246984629465046226800F02D
:1041C00049F84FF0FF3621E0D4F800B0701C2060B1
:1041D000771C18E055F82710701C10B94FF0FF300D
:1041E00001E055F82600A1EB0009C14503DCC8F148
:1041F0000000814506DA55F827102268501C20601F
:1042000045F822107F1C5F45E4DB761C2068B04235
:10421000DADC2846216800F002F8BDE8F08F30B5FE
:104220000C46012213E050F82230114605E04D1EE5
:1042300050F8255040F82150491E002904DD4D1E3C
:1042400050F825509D42F2DC40F82130521CA24229
:10425000E9DB30BDF0B503461546012217E051F801
:104260002240104605E0461E51F8266041F82060C5
:10427000401E002808DD53F82470461E51F82660C1
:1042800053F82660B742EEDC41F82040521CAA42A7
:10429000E5DBF0BD2DE9F04D1D460C4698B0174604
:1042A00021F0004123F00043002814BF4FF0010C1F
:1042B0004FF0000C0CEB440CFE4A0CEB02064FEAEC
:1042C000620C66452BD33E0018BF012606EB45065F
:1042D0001644F94A964222D3F84A53EA070C02D010
:1042E000944205D148B918B000201146BDE8F08DC0
:1042F000002808BF4FF0000C01D04FF0010C0CEB70
:10430000440212F5001F0AD8002F14BF4FF0010C11
:104310004FF0000C0CEB450212F5001F07D918B046
:104320003A462B462146BDE8F04DFEF7ADBD0022D2
:10433000DFF88CA3002CB8BF534526DADFF884C31E
:104340006345A8BF022220DADFF870C39C451CDC5D
:10435000DFF874C30CEB235CBCF1140F08DDCCF167
:10436000340627FA06FC0CFA06F6BE420DD108E028
:104370005FB9CCF1140623FA06FC0CFA06F69E424D
:1043800003D10CF00102C2F1020251EA000C19D172
:10439000002D17DA002C18BF022A01D0012A07D0FD
:1043A0000220FEF799FD18B0BDE8F04DFEF764BDA0
:1043B0000220FEF791FDFEF75FFD18B081F000418D
:1043C000BDE8F08DB7F1000C6CD1534525D104F157
:1043D000804212F5801201BF00280020B74918B0B2
:1043E00008BFBDE8F08DB548884207DC002DA1BFAD
:1043F0006046294618B0BDE8F08D07E0281E05DAB2
:1044000080F0004118B06046BDE8F08DAF497944B6
:10441000D1E9000118B0BDE8F08DDFF8A0C2634516
:1044200025D1002D1FDA19B1514512D1D8B909E0B3
:10443000002840F0EC82A24A214618B062F31E0127
:10444000BDE8F08D0020214618B060F31E01BDE8E4
:10445000F08D08DA18B02346BDE8F04D0246002082
:104460006146FBF7A7BF18B02146BDE8F08D514566
:1044700018DAB5F1804F0DD0A5F1005CBCF1FF5CFE
:1044800010D1B4F1000C0DDB18B06146BDE8F04D61
:1044900000F0ECBB234618B00246BDE8F04D1946CB
:1044A000FBF716BF060024F0004C3BD1D9B15145B3
:1044B00033D1002C06DD002DA1BF0020514618B0DD
:1044C000BDE8F08D002C01DD002D1BDB002C13DA84
:1044D000002D11DB012A4FF0000014BF78497C4900
:1044E00018B0BDE8F08D022A18BF002C0AD0012AAE
:1044F00008D1002C06DA0AE0002CB8BF002D11DA32
:10450000012A04D0002018B00146BDE8F08D18B093
:1045100000204FF00041BDE8F08DA1F14050B0F116
:104520007F601AD0012000EBE47050EA020421D031
:10453000624C521E4FF0000B104304BF4FF0000BB3
:10454000644C654883427CDD644A654893421FDDC4
:10455000884217DB002D25DB37E0002C00DA4AB15A
:10456000022A0CBF01204FF0FF3018B0BDE8F04D1B
:10457000FCF7EFB90120FEF7AFFC18B0BDE8F04D35
:10458000FEF784BC4D4A8A4202DC002D0ADC1CE0A6
:10459000814202DA002D18DA04E0484B994220DD0E
:1045A000002D12DD0220FEF797FCFEF775FC054694
:1045B0000E460022534658462146FBF789FE18B0A6
:1045C00066F31E012846BDE8F08D0220FEF784FC4C
:1045D000FEF76AFC0A46214618B062F31E01BDE8E8
:1045E000F08D002230466146FCF796F980460E4673
:1045F0006FF00102FCF796F94FF05532394BFCF79A
:104600008EF942463346FBF763FE0022364BFCF739
:1046100086F9824642463346049110461946FBF716
:1046200057FE5246049BFBF753FE8A4600904FF01C
:10463000C0422E4B40463146FBF74AFE2C4A2B4BDC
:1046400000E027E0CDE9060151460098FBF740FE67
:1046500082460191274A284B40463146FBF738FEF7
:104660005246019BFCF758F982460B4602460591DB
:10467000DDE90601FCF7AFF8DDE9062300268846F0
:104680003046FCF749F95246059BFCF748F90246CB
:1046900000F07EB90020B1F5801F07DA35223046E0
:1046A0006146FCF73FF906466FF0340000EB2150FD
:1046B00024E00000FFFF1F00FFFF0F000000F03F9D
:1046C0000000F07F0000404301FCFFFF4630000087
:1046D0000000F0FF0000F0BF0000E0410000F043E8
:1046E000FFFFEF3F5555D53F0000E03F4715F73F2F
:1046F000FE822B6544DF5DF80BAE543EA0F2FF3026
:104700000190C1F3130040F07F6141F040510291EC
:10471000FE498842D8BF002004DDFD498142C8BF60
:10472000012001DD0D9008E000200D900198401C53
:1047300001900298A0F5801002900299F548784403
:104740000B910D9900EBC100D0E900230F93304687
:104750000A920B99FCF7E0F8CDE90601DDE90A21A0
:1047600030460F9BFCF737F802460B460020EA491B
:10477000FBF720FE059102460B460090DDE906019D
:10478000FBF7A6FD1490E5488A464FF000087844F0
:104790000299006812904FF0005040EA61010D98B4
:1047A0000F9B01EB804000F5002109910A9A1298B5
:1047B000FCF7B2F832460B9BFCF7B1F84246534681
:1047C000FBF786FD0646029140465146099B129A28
:1047D000FBF77EFDDDE90623FCF7A1F83246029BDC
:1047E000FCF79AF8059B009AFBF772FD0091149A6A
:1047F0000490534610461946FBF76AFD06460246EA
:10480000C7480B46029106217844FEF7DFFACDE94E
:104810000510029B324610461946FBF759FDDDE9AB
:104820000532FBF755FD05910646534640461946AD
:10483000149AFBF7D0FF009B049AFBF749FD324620
:10484000059BFBF7C8FFCDE90510424653461046CD
:104850001946FBF73DFD0022B24B02910A90FBF78F
:10486000BAFFDDE90532FBF7B6FF0E464246AD4B17
:104870004046FCF751F8029B0A9AFCF74DF8DDE937
:104880000532FCF74CF8424602910A903346104636
:104890005146FBF71DFDCDE906015346149A0299D6
:1048A0000A98FBF715FD8A46029033464246009966
:1048B0000498FBF70DFD5346029AFBF78CFF8246E6
:1048C0000B4602460591DDE90601FBF784FFDDE9B1
:1048D0000623002088460646FCF71EF85246059B34
:1048E000FCF71DF8824609914FF060428E4B30462E
:1048F0004146FBF7EDFC049006918C4A8A4B5046EA
:104900000999FBF7E5FC82460291894A894B3046BA
:104910004146FBF7DDFC5246029BFBF75CFF864BF2
:104920007B440D9A03EBC203D3E90023FBF753FF4B
:104930000E9007910198FCF70CF80591DDE906133C
:1049400082460E9A0498FBF746FF7C4A7A440D9BF8
:1049500002EBC303D3E9002300930292FBF73BFF72
:104960005246059BFBF737FF0026884652463046E5
:10497000059BFBF7D1FF009B029AFBF7CDFF069B3F
:10498000049AFBF7C9FF079B0E9AFBF7C8FF024684
:1049900000200B46029038462946FBF799FC8246D8
:1049A00001912B4638461946029AFBF7B5FF32466D
:1049B0004346FBF78DFC5246019BFBF70CFF074675
:1049C0008A463246434629460298FBF781FC054653
:1049D0000E463A465346FBF7FEFE594A8846914238
:1049E00021DBA8EB020353EA000210D12A4633462A
:1049F000FBF792FFCDE90401524A534B384651462A
:104A0000FBF7E9FEDDE90423FBF7CCFF21D202200E
:104A1000FEF762FAFEF740FA0A46214618B062F342
:104A20001E01BDE8F08D494B28F000429A4210D398
:104A3000474A08EB020353EA00027FF4C6AD2A4658
:104A40003346FBF769FF3A465346FBF7ABFF7FF669
:104A5000BCAD0022019228F000403E493E4A01EBE5
:104A60002051824223DA481C4FF4801121FA00F0D1
:104A700040443A4AC0F30A517A44394BA1F2FF311B
:104A8000CB4020EA0303C0F3130040F48010C1F1CF
:104A90001401C84012680190B8F1000FBCBF404239
:104AA000019028463146FBF737FF05460E462A4659
:104AB000334638465146FBF78EFE4FF0000842461B
:104AC000284B40460591FBF703FCCDE90601264A39
:104AD000264B40460599FBF7FBFB009102902A46C6
:104AE000334640460599FBF717FF3A465346FBF716
:104AF00016FF1F4A1F4BFBF7EBFB009B029AFBF7CD
:104B00006AFE0746884602460B4635E08E9803004B
:104B10007AB60B008E2C00000000F03FC62C00007F
:104B2000F42B00000000084009C7EE3FFD033ADC0B
:104B3000F5015B14E02F3EBECC2A0000902A000055
:104B400000009040FE822B654715973C00CC9040BA
:104B500000346F3F01FCFFFF0000E03FDC29000054
:104B6000FFFF0F00432EE63F396CA80C615C20BEAE
:104B7000EF39FAFE422EE63FDDE90601FBF72BFE98
:104B8000DDE9062305460E46FBF7C6FE3A464346D8
:104B9000FBF7C5FE0F462A463346009010461946DD
:104BA000FBF796FB824602462E4888460B460521B7
:104BB0007844FEF70BF952464346FBF789FB2A4639
:104BC0003346FBF7ACFE80468A463B4628463146D4
:104BD000009AFBF77DFB3B46009AFBF7FCFD069134
:104BE000009000224FF0804340465146FBF794FE70
:104BF0000F460C904246534628463146FBF768FB69
:104C00003B460C9AFBF7D6FB069B009AFBF784FE0B
:104C10002A463346FBF780FE0022134BFBF77FFE4C
:104C2000054601980E4601EB00510815002810DCDE
:104C300028463146019AFBF775FEFEF7B3F80428C3
:104C400008BFFEF731F928463146019AFBF76AFEA4
:104C500005460B4618B02A4658462146BDE8F04D99
:104C6000FBF736BB7C2800000000F03F2DE9F04147
:104C700006460F46FBF7E1FE041E0D4618BF012055
:104C8000284320F00040C0F17F6000F1E040C00FF9
:104C90000ED0301C18BF0120384320F00040C0F176
:104CA0007F6000F1E040C00F04BF0120FEF714F95F
:104CB00020462946BDE8F08108B501210420FDF712
:104CC0003DF948208DF803008020ADF80000032056
:104CD0008DF8020069460248FCF7DEFA08BD0000C4
:104CE000000801400000000000000000002F00004C
:104CF00000000700070000147F147F1400242A7F9F
:104D00002A1200626408132300364955225000001D
:104D10000503000000001C224100000041221C008D
:104D20000014083E08140008083E0808000000A00F
:104D3000600000080808080800006060000000200B
:104D400010080402003E5149453E0000427F4000E9
:104D5000004261514946002141454B31001814126F
:104D60007F10002745454539003C4A49493000013C
:104D70007109050300364949493600064949291E8B
:104D800000003636000000005636000000081422ED
:104D900041000014141414140000412214080002ED
:104DA0000151090600324959513E007C1211127C12
:104DB000007F49494936003E41414122007F41413F
:104DC000221C007F49494941007F09090901003E31
:104DD0004149497A007F0808087F0000417F41006F
:104DE000002040413F01007F08142241007F4040E5
:104DF0004040007F020C027F007F0408107F003ECD
:104E00004141413E007F09090906003E4151215EB2
:104E1000007F091929460046494949310001017FAF
:104E20000101003F4040403F001F2040201F003F45
:104E30004038403F006314081463000708700807F7
:104E400000615149454300007F41410000552A550A
:104E50002A55000041417F00000402010204004085
:104E600040404040000001020400002054545478A7
:104E7000007F4844443800384444442000384444C7
:104E8000487F00385454541800087E090102001865
:104E9000A4A4A47C007F080404780000447D4000A2
:104EA000004080847D00007F102844000000417F86
:104EB0004000007C04180478007C08040478003862
:104EC0004444443800FC242424180018242418FCEA
:104ED000007C0804040800485454542000043F4453
:104EE0004020003C4040207C001C2040201C003C16
:104EF0004030403C004428102844001CA0A0A07C66
:104F0000004464544C44141414141414000000009D
:104F100000000000000000000000FC000000000095
:104F200002000000000C020C020000000000000063
:104F300090D0BCD0BC900003000300001824FE44B5
:104F40008C000302070201001824D8B04C80000333
:104F500000010201C038E438E0000102020102024F
:104F6000080600000000000000000000000000F83B
:104F70000402000000010204000204F80000000422
:104F8000020100009060F860900000000100000045
:104F90002020FC2020000000010000000000000094
:104FA0000000080600000000202020202000000053
:104FB00000000000000000000000000200000000EF
:104FC0000080601C0200040300000000F8040404D8
:104FD000F8000102020201000008FC0000000002CB
:104FE0000302000018844424180003020202020095
:104FF00008042424D80001020202010040B088FC09
:1050000080000000000302003C242424C4000102AC
:1050100002020100F824242CC00001020202010057
:105020000C04E41C0400000003000000D824242425
:10503000D80001020202010038444444F800000391
:105040000202010000001000000000000200000049
:105050000000200000000000060000000020508832
:105060000402000000000102909090909000000067
:10507000000000000002048850200002010000002F
:105080001804C4241800000002000000F804E4948E
:10509000F80001020202020000E09CF0800002031E
:1050A0000000030204FC2424D800020302020100D1
:1050B000F80404040C0001020202010004FC0404D0
:1050C000F80002030202010004FC24740C00020335
:1050D0000202030004FC24740C000203020000001E
:1050E000F0080444CC4000010202010004FC20202E
:1050F000FC040203000003020404FC040400020296
:1051000003020200000404FC04040604040300007B
:1051100004FC24D00C0402030200030204FC04007B
:105120000000020302020203FC3CC03CFC0003003E
:105130000300030004FC30C4FC040203020003006B
:10514000F8040404F80001020202010004FC242413
:105150001800020302000000F8848404F800010231
:105160000207050004FC2464980002030200030205
:10517000182424448C000302020201000C04FC04E5
:105180000C0000020302000004FC0000FC0400010B
:1051900002020100047C80E01C0400000300000007
:1051A0001CE03CE01C00000300030000049C609C29
:1051B0000400020300030200041CE01C04000002BF
:1051C000030200000C84641C0400020302020300BA
:1051D0000000FE020200000007040400000E30C0C0
:1051E0000000000000010200000202FE00000004B6
:1051F000040700000004020400000000000000009A
:10520000000000000000080808080808000002006C
:1052100000000000000000000040A0A0C00000014D
:105220000202030204FC2020C0000003020201006D
:1052300000C02020600000010202020000C0202403
:10524000FC0000010202030200C0A0A0C000000197
:10525000020202000020F8242404000203020200DB
:105260000040A0A0602000070A0A0A0404FC2020D5
:10527000C0000203020003020020E400000000025C
:1052800003020000000020E40000080808070000F6
:1052900004FC80E020200203020003020404FC005E
:1052A0000000020203020200E020E020C000030030
:1052B0000300030020E02020C000020302000302DC
:1052C00000C02020C00000010202010020E02020D8
:1052D000C000080F0A02010000C02020E000000109
:1052E000020A0F0820E04020200002030200000014
:1052F0000060A0A020000002020203000020F820AD
:10530000000000000102020020E00020E000000197
:105310000202030220E02080602000000301000060
:105320006080E08060000003000300002060806077
:10533000200002030003020020E020806020080813
:10534000070100000020A06020000002030202000C
:10535000000020DE0200000000070400000000FF43
:1053600000000000000F00000002DE20000000042A
:105370000700000002010204040200000000000017
:10538000000000000000000000000000000000001D
:10539000000000F8000000000000003330000000B2
:1053A00000100C06100C06000000000000000000B9
:1053B00040C07840C0784000043F04043F0404002B
:1053C000007088FC08300000001820FF211E00003B
:1053D000F008F000E018000000211C031E211E0050
:1053E00000F00888700000001E21232419272110D6
:1053F00010160E0000000000000000000000000079
:10540000000000E01804020000000007182040001F
:1054100000020418E000000000402018070000000F
:10542000404080F0804040000202010F0102020073
:10543000000000F0000000000101011F0101010057
:10544000000000000000000080B0700000000000BC
:105450000000000000000000000101010101010145
:1054600000000000000000000030300000000000DC
:1054700000000000806018040060180601000000B1
:1054800000E010080810E000000F102020100F00AE
:10549000001010F8000000000020203F2020000035
:1054A000007008080888700000302824222130008D
:1054B00000300888884830000018202020110E0095
:1054C0000000C02010F8000000070424243F24003E
:1054D00000F80888880808000019212020110E0013
:1054E00000E0108888180000000F112020110E0025
:1054F00000380808C83808000000003F000000001D
:105500000070880808887000001C222121221C00DD
:1055100000E010080810E0000000312222110F0006
:10552000000000C0C000000000000030300000009B
:10553000000000800000000000008060000000000B
:105540000000804020100800000102040810200024
:10555000404040404040400004040404040404006F
:105560000008102040800000002010080402010004
:10557000007048080808F000000000303601000004
:10558000C030C828E810E0000718272423140B00B7
:105590000000C038E0000000203C23020227382031
:1055A00008F8888888700000203F202020110E0015
:1055B000C03008080808380007182020201008000C
:1055C00008F808080810E000203F202020100F00F5
:1055D00008F88888E8081000203F202023201800C1
:1055E00008F88888E8081000203F20000300000029
:1055F000C03008080838000007182020221E0200CA
:1056000008F808000008F808203F210101213F2088
:10561000000808F8080800000020203F20200000B3
:1056200000000808F8080800C08080807F000000A3
:1056300008F888C028180800203F200126382000DC
:1056400008F8080000000000203F20202020300043
:1056500008F8F800F8F80800203F003F003F20005D
:1056600008F830C00008F808203F200007183F0065
:10567000E01008080810E0000F10202020100F0094
:1056800008F808080808F000203F21010101000087
:10569000E01008080810E0000F18242438504F00CC
:1056A00008F8888888887000203F2000030C30208C
:1056B00000708808080838000038202121221C00CA
:1056C000180808F8080818000000203F2000000013
:1056D00008F808000008F808001F202020201F00FC
:1056E0000878880000C83808000007380E0100005C
:1056F000F80800F80008F800033C0700073C030026
:10570000081868808068180820302C03032C30208B
:105710000838C800C83808000000203F20000000FA
:1057200010080808C8380800203826212020180052
:10573000000000FE020202000000007F4040400026
:10574000000C30C000000000000000010638C0005E
:1057500000020202FE000000004040407F00000006
:10576000000004020202040000000000000000002B
:105770000000000000000000808080808080808029
:105780000002020400000000000000000000000011
:1057900000008080808000000019242222223F2007
:1057A00008F8008080000000003F112020110E004A
:1057B0000000008080800000000E112020201100D9
:1057C000000000808088F800000E112020103F208B
:1057D0000000808080800000001F2222222213000F
:1057E000008080F0888888180020203F202000005A
:1057F0000000808080808000006B9494949360000F
:1058000008F8008080800000203F210000203F2019
:1058100000809898000000000020203F2020000019
:10582000000000809898000000C08080807F000009
:1058300008F8000080808000203F24022D302000E6
:10584000000808F8000000000020203F2020000091
:105850008080808080808000203F20003F20003FAB
:105860008080008080800000203F210000203F20B9
:105870000000808080800000001F202020201F006A
:10588000808000808000000080FFA12020110E0099
:105890000000008080808000000E112020A0FF808A
:1058A000808080008080800020203F212000010037
:1058B000000080808080800000332424242419008C
:1058C000008080E0808000000000001F2020000099
:1058D0008080000000808000001F202020103F20DA
:1058E000808080000080808000010E30080601006A
:1058F00080800080008080800F300C030C300F000F
:1059000000808000808080000020312E0E31200039
:10591000808080000080808080818E701806010069
:1059200000808080808080000021302C2221300087
:1059300000000000807C020200000000003F4040A8
:1059400000000000FF00000000000000FF00000059
:105950000002027C800000000040403F0000000088
:105960000006010102020404000000000000000023
:105970000000000000000000000000000000000027
:105980000000000000000000000000000000000017
:10599000000000000000000000F0F0F00000000037
:1059A0000000000000017F01000000000000000076
:1059B000001C1C1C0000000000008060301C8C607B
:1059C000301C0C000000000000000000000000007F
:1059D000000000000000000000000000000000E0E7
:1059E0000000000000E000000086E69F86868686B4
:1059F000E69F860000011F01010101011F01010056
:105A0000000080C06020F820E0C000000000030714
:105A10000C18FF70E18100000000070F10107F10CC
:105A20000F0700008060206080000000E020000080
:105A30000F3020309F70DC371030C0000000100E97
:105A400003000718101807000000C02020E0C00065
:105A50000000000080E01F38E88703C43C04000019
:105A6000070F1810100B070D1010080000808C4C49
:105A700038000000000000000000000000000000EE
:105A80000000000000000000000000000000000016
:105A900000000000000080E030080400000000006A
:105AA00000FEFF0100000000000000000000030FE6
:105AB0001820400000040830E080000000000000D2
:105AC0000000000001FFFE00000000000040201860
:105AD0000F03000000000000000000000000C000F4
